:020000040800F2
:10000000E04900205D0200087F1900085917000828
:100010007D190008E1040008331E000800000000FC
:100020000000000000000000000000009D0100082A
:10003000E304000800000000F9010008C9190008E5
:1000400077020008770200087702000877020008AC
:10005000770200087702000877020008770200089C
:10006000770200087702000877020008770200088C
:10007000770200087702000877020008770200087C
:10008000770200087702000877020008770200086C
:10009000770200087702000877020008E5040008EC
:1000A000770200087702000877020008770200084C
:1000B000770200087702000877020008770200083C
:1000C000770200087702000877020008770200082C
:1000D000770200087702000877020008770200081C
:1000E000770200087702000877020008770200080C
:1000F00077020008770200087702000877020008FC
:1001000077020008770200087702000877020008EB
:10011000491B0008770200087702000877020008F0
:1001200077020008770200087702000877020008CB
:1001300077020008770200087702000877020008BB
:1001400077020008770200087702000877020008AB
:10015000770200087702000877020008770200089B
:10016000770200087702000877020008770200088B
:1001700077020008770200087702000800000000FC
:100180007702000877020008DFF80CD000F002F9CF
:1001900000480047B9200008E04900202C4B1968AE
:1001A0000868B0E8F04F80F30988BFF36F8F4FF015
:1001B000000080F3118870470000000008480068C4
:1001C000006880F308884FF0000080F3148862B65E
:1001D00061B6BFF34F8FBFF36F8F00DF00BF00BF6B
:1001E00008ED00E0DFF80C00016841F470010160E7
:1001F000704700BF88ED00E0EFF30980BFF36F8F19
:10020000134B1A681EF0100F08BF20ED108A20E96A
:10021000F04F106009B44FF0500080F31188BFF325
:100220004F8FBFF36F8F02F027FB4FF0000080F37A
:10023000118809BC19680868B0E8F04F1EF0100F6B
:1002400008BFB0EC108A80F30988BFF36F8F704746
:1002500018000020EFF30580704700000648804733
:1002600006480047FEE7FEE7FEE7FEE7FEE7FEE79B
:10027000FEE7FEE7FEE7FEE7711A000889010008C5
:100280002DE9F05F0546002092469B4688460646CB
:10029000814640241BE0284641464746224600F05E
:1002A00069F853465A46C01A914110D31146184670
:1002B000224600F050F82D1A67EB01084F462246FF
:1002C0000120002100F047F817EB00094E41201EE5
:1002D000A4F10104DFDC484631462A464346BDE826
:1002E000F09F40EA01039B0703D009E008C9121FF1
:1002F00008C0042AFAD203E011F8013B00F8013BE0
:10030000521EF9D27047D2B201E000F8012B491E0B
:10031000FBD270470022F6E710B513460A460446A2
:100320001946FFF7F0FF204610BD30B50B460146D9
:1003300000202022012409E021FA02F59D4205D384
:1003400003FA02F5491B04FA02F52844151EA2F12E
:100350000102F1DC30BD202A04DB203A00FA02F170
:10036000002070479140C2F1200320FA03F31943A3
:1003700090407047202A04DB203A21FA02F0002145
:10038000704721FA02F3D040C2F1200291400843A5
:1003900019467047064C074D06E0E06840F001033F
:1003A00094E8070098471034AC42F6D3FFF7F0FE0C
:1003B000902C0008B02C0008464910B54A6822F479
:1003C00040324A604A6843681A434A6001684A6892
:1003D00022F480724A6001684A68036942EA032293
:1003E0004A6001684A6822F040724A6001684A68BF
:1003F00083681A434A6001688A6822F400628A604E
:1004000001688A68C3681A438A60816A6FF0706203
:10041000D14201688A6822F070628A6001688A6845
:100420000CD0836A1A438A6001688A6822F04052BD
:100430008A6001688A68C36A1A4301E022F0405268
:100440008A6001688A6822F002028A6001688A680C
:10045000037E42EA43028A6090F820100029016876
:100460004A680FD042F400624A6001684A6822F488
:1004700060424A6001684A68174C436A04EB4333A0
:100480001A4301E022F400624A600168CA6A22F459
:100490007002CA620168CA6A838B104C04EB035372
:1004A0001A43CA6201688A6822F400728A6001688D
:1004B0008A6890F8303042EA43228A6001688A688C
:1004C00022F480628A6001688A68406942EA80207A
:1004D000886010BD0023014000E0FFFF0000F0FF36
:1004E000FEE7704710B5402000F082F9802000F050
:1004F0007FF94FF4807000F07BF9BDE810404FF4B5
:10050000007000F075B972B6FEE7000078B50024FF
:10051000009490F83C20012A19D0012280F83C2058
:100520000A6807230568092A13D9EE680A3A02EB1C
:10053000420293409E43EE600B788A680A3B03EBCD
:1005400043039A400368DD682A43DA6010E0022022
:1005500078BD2E6902EB420293409E432E610B78D8
:100560008A6803EB43039A4003681D692A431A61B2
:100570004A681F23072A13D205686E6B521E02EBCE
:10058000820293409E436E630B790A885B1E92B28F
:1005900003EB83039A4003685D6B2A435A6327E0A9
:1005A00005680D2A12D22E6BD21F02EB82029340F5
:1005B0009E432E630B790A88DB1F92B203EB830301
:1005C0009A4003681D6B2A431A6311E0EE6A0D3AE4
:1005D00002EB820293409E43EE620B790A880D3B48
:1005E00092B203EB83039A400368DD6A2A43DA621E
:1005F000164B0568144A9D4206D10D68122D03D191
:10060000556845F48005556005689D4218D10B6812
:10061000102B01D0112B13D1536843F40003536006
:10062000096810290CD10A490A4A0968B1FBF2F19C
:1006300001EB8101490000E0491E00910029FBD136
:1006400080F83C40002078BD00230140002001409C
:100650001400002040420F0070B504004FF0000568
:1006600003D0206C002610B107E0012070BD2046A9
:1006700000F01CF8666484F83C60206CC00610D45E
:10068000206C20F4885040F0020020642046FFF7E0
:1006900093FE6664206C20F0020040F001002064AC
:1006A00000E0012584F83C60284670BD10B586B096
:1006B000044614216846FFF72DFE11492068884240
:1006C0001CD110480021026842F480720260006868
:1006D00000F4807005900B481438026842F0010263
:1006E0000260006800F001000590202000900320C7
:1006F000CDE901016946044800F086F806B010BD56
:100700000020014044380240000002402DE9F04141
:100710000446876D00F076F9064694F8350000250A
:10072000022806D08020606584F834500120BDE89E
:10073000F0812068016821F016010160206841699C
:1007400021F080014161206C08B9A06C20B12068C3
:10075000016821F0080101602068016821F00101B1
:1007600001600CE000F04EF9801B052807D920201D
:100770006065032084F8350084F83450D7E720689A
:100780000068C007EED194F85C103F208840B86044
:10079000012084F8350084F834500020C7E790F831
:1007A0003510022903D080214165012070470521C1
:1007B00080F835100068016821F001010160002017
:1007C00070470000094940280DD0802809D0B0F5B5
:1007D000807F04D0B0F5007F07D1002004E0012025
:1007E00002E0022000E003200860704700000020C3
:1007F000044910B50A68024202D00860FFF7E2FF20
:1008000010BD0000143C01402DE9F84FDFF8BCA1F9
:100810000022012503264FF00F090AF1040BAAF16B
:10082000040E00BF0B6805FA02F42340A34270D106
:100830000F7907F00307012F01D0022F16D1876827
:100840004FEA420806FA08FC27EA0C07D1F80CC068
:100850000CFA08FC4CEA070CC0F808C04768A7432C
:100860000C79C4F3001494403C4344600C79E44395
:10087000A4070AD0C4684FEA420C06FA0CF7BC433E
:100880008F6807FA0CF72743C7600C7904F003045C
:10089000022C12D1D40800EB840CDCF8204057075E
:1008A000FF0E09FA07F824EA0804D1F8108008FAC4
:1008B00007F848EA0408CCF8208004684FEA420CA4
:1008C00006FA0CF7BC430F7907F0030707FA0CF799
:1008D000274307604C6814F4403F70D03C4C2768B5
:1008E00047F480472760246822F0030704F480441B
:1008F0000094384C07EB040CDCF8084897074FEAE3
:10090000177809FA08F7BC43334FB84202D10027E1
:1009100024E054E0314FB84201D101271EE0304FAE
:10092000B84201D1022719E02E4FB84201D1032766
:1009300014E02D4FB84201D104270FE02B4FB842ED
:1009400001D105270AE02A4FB84201D1062705E068
:10095000284FB84201D1072700E0082707FA08F717
:100960002743CCF80878DAF800405746D1F804C09D
:100970009C435FEACC2C00D51C433C60DBF8004074
:100980005F46D1F804C09C435FEA8C2C00D51C4321
:100990003C60DEF800407746D1F804C09C435FEA33
:1009A0008C3C00D51C433C60084F083F3C68D1F8A4
:1009B00004C09C435FEACC3C00D51C433C60521C05
:1009C000102AFFF42FAFBDE8F88F0000083C01406B
:1009D0004438024000300140000002400004024060
:1009E00000080240000C02400010024000140240C7
:1009F00000180240001C02400AB1816170470904DE
:100A0000FBE70000014880687047000008000020F4
:100A10000248816802781144816070470800002014
:100A20000B4810B5016841F400710160016841F4A0
:100A300080610160016841F480710160032000F071
:100A400073F80F2000F006F800F024F8002010BD25
:100A5000003C024070B50D4D04464FF47A71287881
:100A6000B1FBF0F00A490968B1FBF0F000F00EFBB1
:100A700048B9102C07D200222146501E00F034F84D
:100A800000206C6070BD012070BD000008000020D7
:100A9000140000200C4882B0016841F480410160DC
:100AA000006800F4804000900748001F016841F092
:100AB000805101600068002200F0805000900F21FA
:100AC000901E02B000F010B844380240002809DB44
:100AD00000F01F02012191404009800000F1E02058
:100AE000C0F8001170470000F0B40E4B1B680C46B4
:100AF000C3F30223C3F10705042D00D90425191DF2
:100B0000072901D2002300E0DB1E012606FA05F1C9
:100B1000491E214099409E40761E16403143F0BC4C
:100B200001F098B90CED00E0064900F007020868F2
:100B30004FF6FF03184040EA0220034A10430860C2
:100B4000704700000CED00E00000FA052DE9F047C9
:100B50000E46050065D0DFF81481D8F80000F7B222
:100B600000F00700B04207D288F80070D8F8000003
:100B700000F00700B04254D128683D4C810712D5DF
:100B8000400703D5206840F4E05020602878000733
:100B900003D5206840F4604020602068A96820F0F8
:100BA000F000084320602878C0072DD030496868DD
:100BB0000839012812D0022813D0032811D009685F
:100BC000890700292DDA216821F003010143216002
:100BD000FFF718FF814641F2883A0EE00968890361
:100BE000EFE709688901ECE7FFF70CFFA0EB0901CB
:100BF000514502D90320BDE8F0872068696800F0FC
:100C00000C00B0EB810FEFD1D8F80010404601F096
:100C10000701B14207D90770006800F00700B04231
:100C200001D00120E7E72878400705D52068E9686A
:100C300020F4E050084320602878000706D520689B
:100C4000296920F4604040EAC100206000F038F8D3
:100C50002168084AC1F30311515CC8400649086085
:100C600006480068FFF7F6FE0020C4E7003C02409B
:100C7000083802406C2C0008140000200C000020F2
:100C80000448054900680968044AC1F38221515C9F
:100C9000C840704714000020083802407C2C00082F
:100CA0000448054900680968044AC1F34231515CAF
:100CB000C840704714000020083802407C2C00080F
:100CC000154810B5006810F00C02144813D04110FC
:100CD000042A0FD0082A0ED10F4C241F2268236843
:100CE00002F03F025B0207D52068C0F38810A0FB2A
:100CF000010106E0084610BD2168C1F38811A1FB7F
:100D000000010023FFF7BCFA2168C1F30141491C2F
:100D10004900B0FBF1F010BD083802400024F40097
:100D20002DE9F84F04006ED02078DFF84C93C0070F
:100D3000A9F104054AD009F104000168C1F3810159
:100D4000012908D00068C0F3810002280AD1D9F82F
:100D50000000400206D52868800337D56068002867
:100D6000E1D033E06068B0F5803F10D0B0F5A02F3F
:100D7000286810D020F480302860286820F4802073
:100D800028606068A8B1FFF73DFE06460DE02868C0
:100D900040F48030F4E740F480202860F7E700BF9B
:100DA000FFF730FE801B642873D828688003F7D5CE
:100DB0000CE0FFF727FE064605E000BFFFF722FE26
:100DC000801B6428F0D828688003F7D42078DFF8E7
:100DD000AC8280074FF0000A3ED5A748001D01688D
:100DE00011F00C0F08D00068C0F3810002280BD16D
:100DF000D9F80000400207D42868800716D5E068BB
:100E0000012800D112E033E1E068B8B10120C8F850
:100E10000000FFF7F7FD064605E000BFFFF7F2FD13
:100E2000801B0228C0D828688007F7D52868216968
:100E300020F0F80040EAC10028600DE0C8F800A0EA
:100E4000FFF7E0FD064604E0FFF7DCFD801B02280B
:100E50001FD828688007F7D42078000722D5864F4E
:100E600087486169703771B101210160FFF7CAFDE0
:100E7000064604E0FFF7C6FD801B022809D8386843
:100E80008007F7D50EE0C0F800A0FFF7BBFD0646CF
:100E900005E082E0FFF7B6FD801B02287DD83868A8
:100EA0008007F7D42078400768D5DFF8CCB1002759
:100EB0000BF13C0BDBF80000C0000BD4DBF800109A
:100EC00041F08051CBF80010DBF80000012700F062
:100ED000805000906B4E3068C00510D4306840F4EC
:100EE00080703060FFF78EFD009005E0FFF78AFD0F
:100EF0000099401A022850D83068C005F6D55E4ED9
:100F0000A0686C3601280FD00528306810D020F07A
:100F100001003060306820F004003060A068B8B193
:100F2000FFF770FD00900FE0306840F00100F4E73B
:100F300040F004003060F7E7FFF764FD0099411AC4
:100F400041F28830814266D830688007F4D50EE0DF
:100F5000FFF758FD009007E0FFF754FD0099411A94
:100F600041F28830814256D830688007F4D42FB1DE
:100F7000DBF8001021F08051CBF80010A069C8B355
:100F80003D49091D0968C1F3810102294AD002289F
:100F9000504607D0C8F8600000E03CE0FFF732FDA3
:100FA00004463BE04746C8F86000FFF72BFD0646C5
:100FB00005E000BFFFF726FD801B02282BD828681C
:100FC0008001F7D4D4E907010843A16A2E4A4908F1
:100FD00002EB0141626A41EA8211084394F82C1045
:100FE00040EA0161C9F8001001203866FFF70AFDE8
:100FF000044606E03EE000BFFFF704FD001B0228A8
:1010000009D828688001F7D534E000BFFFF7FAFC63
:10101000001B022802D90320BDE8F88F2868800150
:10102000F4D427E00128F7D0D9F80000E26900F4F1
:10103000800191421CD1226A00F03F01914217D1F8
:1010400047F6C071626A0140B1EB821F10D1A26AFB
:101050004FF0FF3300F4403103EB5202B1EB024F8B
:1010600006D194F82C1000F07060B0EB016F01D045
:101070000120D1E70020CFE70438024000004742BA
:10108000800E4742007000400000FFFF10B5401E78
:10109000B0F1807F01D3012010BD4FF0E0246061EA
:1010A0000F21601700F0D6FE0020A061072020610C
:1010B000002010BD70B590F83C20012A32D00124E8
:1010C00080F83C40022280F83D2003685A689D6801
:1010D00022F070060A6832435A60134B02689A4243
:1010E00014D0B2F1804F11D0104B9A420ED0104B59
:1010F0009A420BD00F4B9A4208D00F4B9A4205D020
:101100000E4B9A4202D00E4B9A4204D1496825F008
:1011100080031943916080F83D40002180F83C1025
:10112000084670BD022070BD000001400004004070
:1011300000080040000C0040000401400040014055
:101140000018004010B5040003D094F83D0010B121
:1011500007E0012010BD002084F83C00204600F08C
:101160001FF8022084F83D00211D206800F088FC53
:10117000012084F8460084F83E0084F83F0084F89B
:10118000400084F8410084F8420084F8430084F869
:10119000440084F8450084F83D00002010BD0000A4
:1011A00008B500680649884208D10648016841F040
:1011B00010010160006800F01000009008BD000000
:1011C000001000404038024090F83D10012901D045
:1011D00001207047022180F83D10006811498842C3
:1011E00014D0B0F1804F11D00F4988420ED00F4972
:1011F00088420BD00E49884208D00E49884205D05B
:101200000D49884202D00D49884204D1816801F01D
:101210000701062903D0016841F0010101600020A7
:10122000704700000000014000040040000800403A
:10123000000C004000040140004001400018004044
:1012400001680A6A41F211131A4207D10A6A9B1017
:101250001A4203D10A6822F001020A60012180F8D3
:101260003D1000207047704770470000F8B50168D6
:1012700004460868CA684B6910F00F0F4FF000056C
:1012800059D003F0010602F49077374365D0C107C7
:1012900005D0D10503D5216C41F00101216441073E
:1012A00005D5D90703D0216C41F0020121648107E3
:1012B00005D5D90703D0216C41F004012164010751
:1012C00007D502F02001314303D0216C41F0080121
:1012D0002164216C00293AD0800604D5900602D5FD
:1012E000204600F066FC20684069216CC0F3801045
:1012F000090700D460B3204600F034FC2068406940
:10130000400621D52068143050E8001F21F040012C
:1013100040E80012002AF5D1A06BA8B16C49016524
:10132000A06BFFF73CFA002811D0A06B016D01B053
:10133000BDE8F040084783060FD593060DD520463B
:10134000BDE8F84000F035BC2046FFF78DFFF8BD42
:101350002046FFF789FF2564F8BD266B2023012E68
:1013600079D1C60677D5D60675D508684868009045
:101370004869400640D5A16B086840680004000C2D
:10138000EAD0A28D8242E7D9E085C869B0F5807FB6
:101390002DD020680C3050E8001F21F4807140E807
:1013A0000012002AF5D12068143050E8001F21F007
:1013B000010140E80012002AF5D12068143050E8FD
:1013C000001F21F0400140E80012002AF5D184F806
:1013D0003E30256320680C3050E8001F21F01001DA
:1013E00040E80012002AF5D1A06BFFF78FF9A08D1D
:1013F000E18D401A81B229E0A08DE18D401A81B2C1
:10140000E08D0028A8D00029A6D020680C3050E834
:10141000002F22F4907240E80026002EF5D12068BB
:10142000143050E8002F22F0010240E80026002E80
:10143000F5D184F83E30256320680C3050E8002F49
:1014400022F0100240E80023002BF5D12046FFF7E0
:101450000AFFF8BDFFE705062BD5150629D594F838
:101460003D002128F5D1A068B0F5805F01D1206949
:10147000B0B1206A411C2162216800784860E08C8C
:10148000401E0004000CE084E3D12068C16821F014
:101490008001C1602068C16841F04001C160D8E7A7
:1014A000206A0088C0F308004860206A801C20621F
:1014B000E5E74006CDD55006CBD5CA68204622F0D8
:1014C0004002CA6084F83D3000F045F9C1E70000F1
:1014D000551B000870B5040004D094F83D000025A9
:1014E00010B106E0012070BD84F83C50204600F0A9
:1014F00023F8242084F83D002068C16821F40051BD
:10150000C160204600F0B6FB2068016921F49041DB
:1015100001612068416921F02A0141612068C168A8
:1015200041F40051C1602564202084F83D0084F816
:101530003E00002070BD000070B586B00446142146
:101540006846FEF7E7FE2468264E0023264903225C
:1015500002252648B44224D1234C1034266846F490
:1015600000262660246804F4002405940C6844F0E6
:1015700001040C600968029301F001010591CDE9B5
:1015800000250821CDE903216946FFF73DF9002236
:1015900005213420FFF7A8FA3420FFF797FA06B0A8
:1015A00070BD134EB442FAD10F4C1434266846F085
:1015B00010062660246804F0100405940C6844F0BA
:1015C00001040C600968029301F0010105914FF4D8
:1015D000C061CDE900150721CDE903216946FFF778
:1015E00013F9DCE7004C00403038024000000240B4
:1015F0000010014090F83E30202B0ED159B152B16D
:1016000090F83C30012B08D0012380F83C300023B7
:10161000036300F0B5BB0120704702207047000053
:1016200070B51A4902688A421BD1194CA278C2B11E
:10163000184D2378EA545B1C2370A368072B10D144
:1016400000680025884201D1232A12D0884201D1A6
:10165000242A14D0884204D10F4960780A54401CCF
:101660006070BDE870400A490122891C0B48FFF7F1
:10167000C1BF4FF400710848FEF74CFE03E0064975
:1016800007A000F0D7FB6570EBE70000004C0040BE
:101690008000002018410020E0430020A00300202B
:1016A000257300002DE9F843044690F83D001F46DD
:1016B00016460D4620284CD1C5B1BEB194F83C0069
:1016C000012846D0012084F83C004FF00008C4F8FF
:1016D0004080212084F83D00FFF794F9A6848146DC
:1016E000E684A068B0F5805F03D004E00120BDE887
:1016F000F883206928B12E465FF0000584F83C800D
:101700000EE00026FAE78021204600F056FBA0B943
:10171000AEB116F8010B21684860E08C401EE084F1
:10172000E08C4B464FF0000200970028EBD14FF0C1
:101730004001204600F041FB30B10320D7E735F8E7
:10174000020BC0F30800E6E7202084F83D000020EB
:10175000CDE70220CBE77047FEE700007FB500240D
:10176000144800940194029411490394C0E90014B0
:1017700084600461047680F820400F49C0E90A14AF
:101780000125C561C46080F830404561FEF764FF03
:1017900008B1FEF7B8FE0520CDE9000569460294C0
:1017A0000448FEF7B3FE002801D0FEF7ACFE7FBD73
:1017B00000200140100300200100000F00B587B099
:1017C0001C2206496846FEF78CFD0021684600F0A1
:1017D00098FC0349086007B000BD0000502C0008C9
:1017E00004000020F0B587B014216846FEF792FD92
:1017F00031480025016841F010010160016801F0E5
:1018000010010591016841F020010160016801F0BB
:1018100020010591016841F080010160016801F03B
:1018200080010591016841F001010160016801F04A
:1018300001010591016841F04001016000681F4EFF
:1018400000F040000590012218213046FFF7D4F83F
:101850001B4F002280213846FFF7CEF801225102AB
:101860003846FFF7C9F801241820CDE9000469467D
:101870003046CDE90245FEF7C7FF4FF47070009087
:101880004FF48810CDE9010569460E48FEF7BCFF0C
:101890004FF42070CDE9000469463846CDE9024591
:1018A000FEF7B2FF002205211720FFF71DF91720D0
:1018B000FFF70CF907B0F0BD3038024000100240CD
:1018C00000180240001402401CB500240E48009489
:1018D0000C490194C0E900144FF6FF71C0E90241C0
:1018E0008461FFF72FFC08B1FEF70DFE00946946F6
:1018F00005480194FFF7DEFB002801D0FEF703FE48
:101900001CBD000000100040580300200C4810B51A
:101910000A4901604FF4E1314160002181600C22ED
:10192000C160C0E904128161C161FFF7D3FD0028E5
:1019300003D0BDE81040FEF7E6BD10BD004C0040EE
:10194000A00300200C4810B50A4901604FF4E131B2
:101950004160002181600C22C160C0E904128161F4
:10196000C161FFF7B7FD002803D0BDE81040FEF7C6
:10197000CABD10BD00100140E4030020FEE7FEE7F1
:101980000A4C4FF0FF364FF47A75C821012000F061
:101990000DFE07A000F04EFA08A0216800F04AFAF8
:1019A0002846266000F0A1FBEFE7000000000020C1
:1019B000D4CBD0D0D5FDB3A30A0000006B6579204D
:1019C0003D2025640A00000010B5FFF721F801F062
:1019D00069F8012803D0BDE8104000F0F5BF10BD44
:1019E00030B593B030216846FEF794FC14210CA862
:1019F000FEF790FC1C480024016841F08051016012
:101A0000006800F0805011901848016841F480414E
:101A100001600068022500F48040119001200390CD
:101A200010200490009506950820CDE90740482035
:101A3000CDE9090504200B906846FFF771F908B15C
:101A400072B6FEE70F20CDE90C054FF48050CDE9CA
:101A50000E4002210CA81094FFF778F8002801D05E
:101A600072B6FEE713B030BD40380240007000404F
:101A70000248016841F470010160704788ED00E0A0
:101A8000F0B50268254C264D264E274F274B4FF0C8
:101A9000804CA04209D0604507D0A84205D0B04292
:101AA00003D0B84201D0984204D122F0700E4A68A7
:101AB00042EA0E02A0421BD0604519D0A84217D0BE
:101AC000B04215D0B84213D0984211D0184DA84258
:101AD0000ED0184DA8420BD0174DA84208D0174D74
:101AE000A84205D0164DA84202D0164DA84203D1F7
:101AF00022F44075CA682A434D6922F080022A43C5
:101B000002608A68C2620A688262A04201D098427A
:101B100001D10969016301214161F0BD000001406B
:101B20000004004000080040000C00400004014098
:101B300000400140004401400048014000180040BE
:101B4000001C0040002000400148FFF78FBB000050
:101B5000A003002010B5806B0021C185C184FFF770
:101B600083FB10BD01680C3151E8002F22F4907204
:101B700041E80023002BF5D10168143151E8002F12
:101B800022F0010241E80023002BF5D1016B01296D
:101B900009D101680C3151E8002F22F0100241E810
:101BA0000023002BF5D1202180F83E100021016395
:101BB000704708B590F83E10222901D0022008BDD8
:101BC00082684FF480539A4201D1016921B1816A40
:101BD0009A421BD04AB10AE00268816A5268C2F395
:101BE00008020A80816A891C08E0026972B10268F1
:101BF000526802F07F020A70816A491C8162C18DBD
:101C0000491E0904090CC18503D019E00268526815
:101C1000F1E70168CA6822F02002CA600168CA6858
:101C200022F48072CA6001684A6922F001024A61A6
:101C3000202180F83E10016B012903D0FFF7F0FC52
:101C4000002008BD0021016301680C3151E8002F1C
:101C500022F0100241E80023002BF5D101680A6848
:101C6000D20602D50A6849680091818DFFF7FBFA18
:101C7000E6E7000070B5044600680169E26821F4F7
:101C80004051114301612169A068E269084361691B
:101C9000114308432168CA6849F20C639A4302431E
:101CA000CA6020684169A26921F440711143416111
:101CB00031492068884202D03049884202D1FEF77B
:101CC000EFFF01E0FEF7DCFFE26900231921642544
:101CD0003226B2F5004F626828D0A0FB0101930FB5
:101CE0009200FEF7CDFA0146B0FBF5F06FF0180256
:101CF000504301EB800006EB0010B0FBF5F000F064
:101D0000F002B1FBF5F002EB0012B1FBF5F06FF061
:101D10001803584301EB800006EB0010B0FBF5F010
:101D200000F00F0021681044886070BDA0FB010125
:101D300092185B41FEF7A4FA0146B0FBF5F00201F0
:101D4000B1FBF5F06FF01803584301EB800006EB90
:101D5000C000B0FBF5F000F0F80002EB4002B1FB70
:101D6000F5F0584301EB800006EBC000B0FBF5F046
:101D700000F00700D6E70000001001400014014009
:101D800081628285C28500210164222280F83E2082
:101D900080F83C10016921B10168CA6842F4807280
:101DA000CA6001684A6942F001024A610068C1687C
:101DB00041F02001C160002070472DE9F0419846B4
:101DC00017460E460446069D27E0681C25D02DB117
:101DD000FEF718FEA0EB0800A8421ED920680C30C0
:101DE00050E8001F21F4D07140E80012002AF5D11C
:101DF0002068143050E8001F21F0010140E8001273
:101E0000002AF5D1202084F83D0084F83E0000200F
:101E100084F83C000320BDE8F0812068006836EAC1
:101E2000000004D00020B842CFD00020F3E701200A
:101E3000F9E7FEE70FB4054B10B503A9044A029871
:101E400000F028F810BC5DF814FB00004D200008DD
:101E5000B80000200907090E002804DB00F1E0208B
:101E600080F80014704700F00F0000F1E02080F8C7
:101E7000141D704702E008C8121F08C1002AFAD1D9
:101E800070477047002001E001C1121F002AFBD1FA
:101E9000704700002DE9FF4F8BB09A460F4605466C
:101EA000002606E025280BD052460D9990476D1C60
:101EB000761C28780028F5D10FB03046BDE8F08FA9
:101EC0000024A0460122604900E0044315F8013FC8
:101ED000203B02FA03F00842F7D128782E2817D1C8
:101EE00015F8010F44F004042A280ED06FF02F02D9
:101EF0002878A0F1300109290AD808EB880102EB03
:101F0000410100EB01086D1CF2E757F8048B6D1CD2
:101F1000287869283ED006DC0028CDD063280BD075
:101F2000642804D136E0732810D075284BD052466F
:101F30000D999047761C85E017F8040B8DF800008A
:101F400000208DF80100E946012003E057F8049BCA
:101F50004FF0FF3061074FF0000401D40AE0641C29
:101F600044450DDA8442FADB19F804100029F6D151
:101F700006E0641C8442FCDB19F804100029F8D147
:101F8000264404E019F8010B52460D999047641E4F
:101F9000F8D257E001CF4FF00A0B002802DA404296
:101FA0002D2102E0210504D52B218DF824100121DB
:101FB00003E0E10705D02021F7E70DF120090891A2
:101FC0000CE00021F9E701CF4FF00A0BF9E7594681
:101FD000FEF7ABF901F1300209F8012D0028F6D126
:101FE000ADEB090000F1200B600701D44FF00108B0
:101FF000D84502DDA8EB0B0000E00020804600245D
:1020000006E009A85246005D0D999047641C761CB5
:1020100008988442F5DB04E0302052460D99904741
:10202000761CB8F10001A8F10108F5DC05E019F80B
:10203000010B52460D999047761CBBF10001ABF1A4
:10204000010BF4DC6D1C34E70928010038B50446A7
:102050008DF800000223012269460248FFF722FBA7
:10206000204638BDE403002070B504464FF47A756D
:1020700002E0284600F004F8641EA4B2F9D270BD54
:102080000A21B0FBF1F070B54FF6FA75281A84B248
:102090000848FFF799F8074801684C62006801E0BA
:1020A000416A8CB2AC42FBD3BDE870400148FFF7F7
:1020B000C7B8000058030020FEF7B2FCFFF790FC01
:1020C000FFF790FBFFF73EFCFFF748FBFFF7FCFB39
:1020D000FFF71CFCFFF772FB00F00EF8FEE701466D
:1020E0000020842900D0C81C704710B500B9012019
:1020F00000F05EFB002010BD10B500F07FFB00205B
:1021000010BD7FB50D4604464169B0F9080081B1A4
:10211000A16971B1FFF7E3FFD4E905128DE807006B
:10212000D4E900102B46226900F091FC039004B022
:1021300070BDFFF7D4FF03A9CDE90001208A2B462B
:1021400082B2D4E9001000F055FC012801D0002033
:10215000EDE70398EBE700002DE9F041184C0F463E
:102160000546E6682068001D00F05AFA38B9206874
:1021700090F82C1001208840216981432161681C5E
:1021800007D137B12168BDE8F0410E48091D00F0C4
:102190008BBA20683544B5424560216805D2A06BF2
:1021A000BDE8F041091D00F067BA606B091D00F041
:1021B00063FAA06A854200D2A562BDE8F081000002
:1021C00018000020040500202DE9F041054600F02C
:1021D00077FA2E4CA068401CA06020682C4F10B1EC
:1021E000606940B32DE02560A068012829D1002650
:1021F00006EB860007EB800000F030FA761C072E15
:10220000F6D323488C3000F029FA2148A03000F0A2
:1022100025FA1F48B43000F021FA1D48C83000F0FC
:102220001DFA1B48DC3000F019FA19488C30606345
:102230001430A06305E02068E96AC06A884200D8CB
:102240002560606A401C6062E96A0120226988405A
:102250001043206101EB810007EB8000291D00F095
:1022600023FA00F04DFA606900280CD02068E96A72
:10227000C06A884207D207494FF080500860BFF318
:102280004F8FBFF36F8FBDE8F08100001800002072
:102290002804002004ED00E010B5044690F8510039
:1022A00058B101280CD002280FD0502080F311889B
:1022B000BFF34F8FBFF36F8FFEE7206B00F034FA50
:1022C0002046BDE8104000F02FBA10BD10484FF472
:1022D0007051420706D0C01D0D4920F00700411A79
:1022E000C1F570510B4A00230144C2E900030839CB
:1022F000183A21F0070111604B600B600B1AC0E91E
:10230000001393604FF0004053605061704700002D
:10231000180500206C000020144E154CA6F1C807CB
:102320004FF08058DFF84C9012E000BF00F0C8F981
:10233000F068C568281D00F073F9A068401EA06011
:102340006068401E606000F0DBF92846FFF7A4FFDC
:1023500060680028EAD138680128F9D9C9F80080F6
:10236000BFF34F8FBFF36F8FF2E70000F004002040
:102370001800002004ED00E02DE9F0479A46DDE961
:10238000098481466FF00303206B03EB8202104443
:10239000089E20F00707780707D0502080F31188A7
:1023A000BFF34F8FBFF36F8FFEE7002561B10020B1
:1023B00023180A5C83F834200A5C12B1401C1028F0
:1023C000F6D384F8435001E084F83450072E00D34C
:1023D0000626E662C4E91165201D00F04AF904F101
:1023E000180000F046F92461C6F107006462A0619C
:1023F000E56484F8505052464946384600F0C0F82B
:102400002060B8F1000F01D0C8F80040BDE8F087A7
:1024100030B5114900E011460A688242FBD34B688F
:102420005C18844203D140681844486008464368F9
:102430001C18944209D1084C183C2468A24209D0C7
:1024400052681A4442600A6812680260814200D0F1
:10245000086030BD0460F9E76C0000200648416B5D
:10246000096829B1416BC968C968496881627047C8
:102470004FF0FF31FAE700001800002008484068DC
:10248000401C4FF0500080F3118804D0BFF34F8FF1
:10249000BFF36F8FFEE7BFF34F8FBFF36F8FFEE782
:1024A000740000202DE9F0410546002700F0DCF91A
:1024B000324E306808B9FFF709FF706905424ED106
:1024C000C5B3083568070ED005F00700C0F1080055
:1024D0000544680707D0502080F31188BFF34F8F61
:1024E000BFF36F8FFEE72DB37068854237D823485E
:1024F000183001460C6801E020460C466168A9428C
:1025000002D221680029F7D131688C4227D00768B0
:102510002168016060680837411B10290FD96019D4
:10252000420708D0502080F31188BFF34F8FBFF3CC
:102530006F8FFEE713E041606560FFF769FF616838
:102540007068401A7060B268904200D2B0607069E2
:1025500001430020C4E90001F068401CF06000F075
:1025600015FB780707D0502080F31188BFF34F8FF9
:10257000BFF36F8FFEE73846BDE8F08154000020BE
:1025800010B5031F4FF080741C601B1F21F0010168
:102590001960191F044B0B6014390A60091F6FF092
:1025A000020244380A6010BD7D2400082DE9F04184
:1025B0000D46064600242BE0174F0022082138461E
:1025C000FEF71AFAA8B2FFF74FFD0122082138469C
:1025D000FEF712FA002210213846FEF70DFAA8B2D3
:1025E000FFF742FD012210213846FEF705FADFF819
:1025F0002C807F15002239464046FEF7FDF9A8B22F
:10260000FFF732FD012239464046FEF7F5F9641C1A
:10261000B442D1DBBDE8F081001002400018024056
:10262000D0E9013201699A60D0E901235A604A6811
:10263000824201D182684A60002202610868401E1D
:102640000860086870470000034B036003F1540002
:102650000860802010607047BC00002000F1080175
:102660004FF0FF32C0E90112C16001610021016039
:10267000704700210161704730B50B685A1C02D0C9
:1026800000F1080202E0026904E02246546825686D
:102690009D42FAD953684B6099608A605160086125
:1026A0000168491C016030BD42684A6093688B60D4
:1026B00093685960916008610168491C0160704726
:1026C000502080F31188BFF34F8FBFF36F8F0A49FB
:1026D0004868401C486001280CD10848006810F088
:1026E000FF0F07D0502080F31188BFF34F8FBFF347
:1026F0006F8FFEE7704700007400002004ED00E0DB
:102700000849486828B1401E486001D180F311880B
:102710007047502080F31188BFF34F8FBFF36F8F46
:10272000FEE700007400002070B500282AD0164D86
:10273000A0F1080460686969084207D1502080F35D
:102740001188BFF34F8FBFF36F8FFEE722683AB156
:10275000502080F31188BFF34F8FBFF36F8FFEE7D8
:102760008843606000F080F86068696808446860C9
:102770002046FFF74DFE2869401C2861BDE87040E7
:1027800000F004BA70BD0000540000204FF0E020BB
:1027900000210161816105494FF47A720968B1FB3A
:1027A000F2F1491E416107210161704714000020C8
:1027B00010B5020014D00F48006B38B1502080F3E0
:1027C0001188BFF34F8FBFF36F8FFEE700F04CF817
:1027D00000211046FFF7C0FC00F0D8F9002807D10F
:1027E00005494FF080500860BFF34F8FBFF36F8FE4
:1027F00010BD00001800002004ED00E010B586B008
:102800000024039405AA04A903A80494FFF71CFF5D
:10281000DDE903010094CDE9011000230EA1104869
:10282000059A00F014F90F490028C86211D0502011
:1028300080F31188BFF34F8FBFF36F8F4FF0FF30DE
:10284000886201204861CC6006B0BDE8104000F00D
:1028500041B806B010BD000049444C4500000000DE
:1028600019230008180000200248016B491C01636D
:1028700070470000180000201448016B11B10121BD
:10288000C16170470021C1610169B1FA81F1C1F1F3
:102890001F0101EB81020E4951F822306BB101EBAF
:1028A000820101F108034A6852684A609A4201D1E4
:1028B00052684A60D16801607047502080F31188E7
:1028C000BFF34F8FBFF36F8FFEE7000018000020AB
:1028D000280400201CB537480168374A914207D1C7
:1028E000502080F31188BFF34F8FBFF36F8FFEE747
:1028F00000683149491E884207D1502080F3118871
:10290000BFF34F8FBFF36F8FFEE72C49087801901C
:10291000FF20087008788DF800009DF800009DF8F1
:10292000002000F0F000904207D0502080F3118882
:10293000BFF34F8FBFF36F8FFEE79DF80000204C71
:1029400000F0500020700720A06005E09DF80020F6
:1029500052008DF80020401E9DF800201206F5D48C
:10296000A060032807D0502080F31188BFF34F8F59
:10297000BFF36F8FFEE74FF44070A06001980870BE
:102980000C482030016841F470010160016841F099
:1029900070410160FFF7FAFE00206060FDF722FC45
:1029A0000848016841F040410160FDF707FC002044
:1029B0001CBD000000ED00E071C20F4100E400E02A
:1029C0007400002034EF00E010B5502080F311882F
:1029D000BFF34F8FBFF36F8F00F072F818B1044947
:1029E0004FF080500860002080F3118810BD000077
:1029F00004ED00E02DE9FF5F8346DDE90E8799468F
:102A000016468A469000FFF74DFD05001CD0542065
:102A1000FFF748FD040014D00020256384F851001E
:102A2000CDE90240CDE900874B4632465146584633
:102A3000FFF7A2FC2046FFF7C7FB012004B0BDE86A
:102A4000F09F2846FFF770FE4FF0FF30F6E7F0B535
:102A500085B0DDE90B640A9DA6B1DCB1542700976F
:102A60002663022684F85160002604AFCDE90246B1
:102A7000CDE90057FFF780FC2046FFF7A5FB04983F
:102A800005B0F0BD502080F31188BFF34F8FBFF326
:102A90006F8FFEE7502080F31188BFF34F8FBFF395
:102AA0006F8FFEE70548416919B1006B18B100202E
:102AB0007047012070470220704700001800002076
:102AC0002DE9F0412F4C0026206B28B1A069401C55
:102AD000A0613046BDE8F081E5686D1CE56013D16A
:102AE000606B006838B1502080F31188BFF34F8FBE
:102AF000BFF36F8FFEE7606BA16B6163A063206A19
:102B0000401C2062FFF7AAFCA06ADFF87C808542A7
:102B100009D3606B0068A0B1606BC068C768786853
:102B2000854211D2A0622068C06A00EB800158F88B
:102B30002100012800D90126E0690028C9D001261A
:102B4000C7E74FF0FF30EDE7381DFFF769FDB86AC2
:102B500018B107F11800FFF763FDF96A0120226937
:102B600088401043206101EB810108EB8100391D91
:102B7000FFF79AFDF86A2168C96A8842C9D301261D
:102B8000C7E7000018000020280400202DE9F047C6
:102B90002C4D00242746286B38B1FFF791FD286B98
:102BA000401E2863286B40B146E0502080F3118816
:102BB000BFF34F8FBFF36F8FFEE7A968224E01204E
:102BC000D1B3A6F1B40980463068E8B1F068C468B2
:102BD00004F11800FFF724FD201DFFF721FDE06A36
:102BE0002A6908FA00F11143296100EB800109EB21
:102BF0008100211DFFF758FDE06A2968C96A8842F3
:102C0000E2D3C5F81C80DFE70CB1FFF727FCAC6905
:102C100044B14646FFF754FF00B1EE61641EF9D19E
:102C20000020A861E86938B1084901273807086021
:102C3000BFF34F8FBFF36F8FFFF762FD3846BDE8DC
:102C4000F087000018000020DC04002004ED00E004
:102C5000842C00088119000800000000000000001A
:102C600080000000000000000000000000000000E4
:102C7000000000000102030406070809000000002C
:102C80000102030464656661756C745461736B00C2
:102C9000B02C000800000020BC000000741E0008DA
:102CA0006C2D0008BC00002024490000841E000890
:102CB000FFFFFFFF00000000010000001000000007
:102CC000000000000024F4000000000000000000EC
:102CD00000000000000000000000000000000000F4
:102CE00000000000000000000000000000000000E4
:102CF00000000000000000000000000000000000D4
:102D000000000000000000000000000000000000C3
:102D100000000000000000000000000000000000B3
:102D20000000000000000000AAAAAAAA00000000FB
:102D300000000000881300000000000048554157C3
:102D400045494D617465426F6F6B443135004C44A9
:102D5000483132333435363738003139322E313656
:0C2D6000382E312E31323200000000000D
:040000050800018965
:00000001FF
